:020000040800F2
:10000000B807002099010008EF1C000845170008F8
:10001000ED1C0008FF060008272000080000000073
:100020000000000000000000000000003D1E00086D
:100030007707000800000000F11C0008571E0008A8
:10004000B3010008B3010008B3010008B3010008C0
:10005000B3010008B3010008B3010008B3010008B0
:10006000B3010008B3010008B3010008B3010008A0
:10007000B3010008B3010008B3010008B301000890
:10008000B3010008B3010008B3010008B301000880
:10009000B3010008B3010008B3010008B301000870
:1000A000B3010008B3010008B3010008B301000860
:1000B000B3010008B3010008B3010008B301000850
:1000C000B3010008B3010008B3010008B301000840
:1000D000B3010008B3010008B3010008B301000830
:1000E000B3010008B3010008B301000800F002F8F2
:1000F00000F042F80AA090E8000C82448344AAF180
:100100000107DA4501D100F037F8AFF2090EBAE87D
:100110000F0013F0010F18BFFB1A43F0010318473B
:1001200084240000A4240000103A24BF78C878C1B9
:10013000FAD8520724BF30C830C144BF04680C60ED
:10014000704700000023002400250026103A28BF35
:1001500078C1FBD8520728BF30C148BF0B60704739
:10016000782900F09D80732900F087820020704775
:100170001FB51FBD10B510BD00F088FA1146FFF77E
:10018000F7FF02F021F800F0A6FA03B4FFF7F2FF40
:1001900003BC00F0A9FA000009488047094800475D
:1001A000FEE7FEE7FEE7FEE7FEE7FEE7FEE7FEE727
:1001B000FEE7FEE704480549054A064B7047000084
:1001C000AB1E0008ED000008B8010020B8070020B1
:1001D000B8030020B80300200FB41CB5074B06AAD3
:1001E0007B4469460090059800F01DFA002069469E
:1001F00000F02CFA1CBC5DF814FB00006904000040
:1002000070B5044685690068C10601D5302600E056
:100210002026C00707D070BDD4E9012130469047A1
:10022000206A401C20626D1EF6D570BD70B5044674
:1002300085690078C00707D170BDD4E9012120206D
:100240009047206A401C20626D1EF6D570BD70B5C7
:100250000C460546012A05D02878800600D5EA69B3
:10026000002302E0012305E05B1C934202D2E05C24
:100270000028F9D1A869E618C01AA861286A1844AC
:1002800028622846FFF7BCFF04E0D5E9012114F8F5
:10029000010B9047B442F8D32846FFF7C7FF70BD63
:1002A00070B504460D4621461068AFF300802188E2
:1002B000090502D50F4A7A4402E00E4A7A440E320A
:1002C000002104F1240305E000F00F060009965D0B
:1002D0005E54491C0028F7D120780023000704D57C
:1002E000702D02D009B1022311322046BDE87040C2
:1002F00000F03BB9B02200002DE9F05F89460446CA
:100300004FF0000ADFF874B1FB44C0F820A020468B
:10031000E1688847002874D0252806D0D4E9012157
:100320009047206A401C2062F1E700265F46204685
:10033000E16888472028054607DB312D05D278196A
:1003400010F8200C08B10643F1E7B00701D526F0FC
:100350000406C4F81CA00027C4F818A02A2D09D050
:10036000284601F08FFE38B304EB8708303DC8F80B
:10037000185019E059F8041B204604EB87029161DC
:10038000E1688847012F054618D1E069002820DA86
:1003900026F020061DE0D8F8180000EB800005EBE1
:1003A00040003038C8F818002046E1688847054604
:1003B00001F068FE0028EED1012F0AD02E2D08D1C1
:1003C0002046E16888477F1C0546022F46F020063C
:1003D000C4DBA069002803DA404246F00106A061B0
:1003E000F00701D026F010066C2D0BD0682D09D037
:1003F0004C2D39D06A2D35D0742D35D07A2D33D08F
:1004000016E038E0E1682F4620468847B8420546A6
:1004100009D16C2F26D04FF48060E1680643204656
:100420008847054604E06C2F1AD04FF480700643CD
:100430000DB3A5F14100192802D8203546F4006615
:100440004A462946204626604E46FFF789FE80B17F
:1004500001280BD0F61D26F0070000F1080956E729
:100460004020E4E78020D8E70020D6E706F1040921
:100470004DE7284652E7206ABDE8F09F862200003B
:1004800040EA010310B59B070FD1042A0DD310C811
:1004900008C9121F9C42F8D020BA19BA884201D963
:1004A000012010BD4FF0FF3010BD1AB1D30703D0AB
:1004B000521C07E0002010BD10F8013B11F8014B61
:1004C0001B1B07D110F8013B11F8014B1B1B01D17D
:1004D000921EF1D1184610BD10B5431C02E010F871
:1004E000011B71B18107FAD14FF0013202C88C1A99
:1004F0008C4314EAC211F9D0C01A0A0603D0C01EF8
:1005000010BDC01A10BD0A0401D0801E10BD090222
:10051000FCD0401E10BD4FF0000200B513469446BB
:100520009646203922BFA0E80C50A0E80C50B1F14B
:100530002001BFF4F7AF090728BFA0E80C5048BF5F
:100540000CC05DF804EB890028BF40F8042B08BFFD
:10055000704748BF20F8022B11F0804F18BF00F8F9
:10056000012B70477047704770472DE9F0470D46E3
:1005700099469246044600F124080168880604D58D
:10058000E06921F01001216000E00120A84201DDB6
:10059000471B00E00027A1697A1902EB0900081A3D
:1005A000A0612078C00602D42046FFF729FE00266D
:1005B00008E0D4E901211AF806009047206A401C9F
:1005C000761C20624E45F4DB2078C0060AD5204612
:1005D000FFF716FE06E0D4E9012130209047206A9B
:1005E000401C2062381EA7F10107F4DC07E0D4E9C3
:1005F000012118F805009047206A401C2062281E3F
:10060000A5F10105F3DC2046FFF710FE2078000677
:1006100002D50220BDE8F0870120FBE701694A1CF2
:1006200002610878704700B58FB0CDE90131002133
:10063000059105497944CDE9031011466846FFF755
:100640005BFE0FB000BD0000E5FFFFFF0A6802F887
:10065000010B0A60704710B5436913B1AFF3008016
:1006600001E0FFF7F4FD012010BD127800F1240134
:100670000A7000224A700122EDE711684FF0FF3244
:10068000E9E7000000487047580100207546FFF771
:10069000F9FFAE4605006946534620F0070085463F
:1006A00018B020B5FFF786FDBDE820404FF00006EA
:1006B0004FF000074FF000084FF0000B21F007014A
:1006C000AC46ACE8C009ACE8C009ACE8C009ACE88D
:1006D000C0098D46704710B50446AFF30080204630
:1006E000BDE81040FFF751BD01491820ABBEFEE741
:1006F0002600020070470321142001F0A0BBFEE792
:100700002DE9F0410E46074615460421052000F06C
:1007100026F880210A2001F092FB002405E0395DD3
:10072000092001F081FC641CE4B2B442F7D3032138
:10073000012001F079FCFF24052001F0EBFA641E92
:1007400014F0FF0401D04007F6D5222001F0E2FAB0
:100750002870212001F0DEFA6870BDE8F08170B5E4
:100760000C46054601F0D6FA20EA04012846BDE809
:10077000704001F059BC704770B5044600F004F9B0
:100780000546601C02D004480078044400F0FCF8E0
:10079000401BA042FAD370BD100000202DE9F84F95
:1007A000DFF8B8910024A9F1040B23460F2709F1C3
:1007B000040AABF1040EC9E00125A5402A40AA4273
:1007C0007DD1674ED1F804C0ACEB0608B44532D0F9
:1007D00014DCBCF1030F3AD009DCBCF1000F2AD0C5
:1007E000BCF1010F1CD0BCF1020F31D11DE0BCF1F6
:1007F000110F17D0BCF1120F2AD119E0B8F5881FDC
:1008000019D006DCB8F5803F15D0B8F5801F1FD190
:1008100011E0B8F5001F0ED0B8F5041F18D10AE09A
:10082000CB6815E0CB681B1D12E0CB6808330FE0E6
:10083000CB680C330CE08B682BB1012B4FF0080315
:1008400003D0456104E0042302E0056100E00023D9
:10085000FF2A01D8064601E000F104064FEA8405AC
:1008600001D9A5F12005D6F8008007FA05FC28EA91
:100870000C0803FA05F548EA0508C6F800804D683B
:10088000ED0062D5374DAE6946F00106AE61AD6947
:1008900024F0030605F001050095334D06EB050C29
:1008A000DCF80850A607360F07FA06F825EA08050F
:1008B000DFF8B880404503D14FF0000817E044E06E
:1008C000DFF8AC80404502D14FF001080FE0DFF8BF
:1008D000A480404502D14FF0020808E0DFF898807C
:1008E000404502D14FF0030801E04FF0040808FA38
:1008F00006F848EA0508CCF808804D68D9F8006089
:10090000ED024D4601D5164300E096432E604D683A
:10091000DAF80060AD02554601D5164300E0964373
:100920002E604D68DBF80060AD035D4601D51643CF
:1009300000E096432E604D68DEF80060ED037546DA
:1009400001D5164300E096432E60641C0D682A46CC
:10095000E5407FF431AFBDE8F88F000008040140A6
:10096000000011100010024000000140000801408A
:10097000000C014000100140001401400AB1016167
:1009800070470904FBE700000148806870470000D9
:100990001000002070B5040025D094F83D0000251B
:1009A00020B984F83C50204600F04EF9242084F809
:1009B0003D002068016821F00101016020680168A4
:1009C00041F4004101602068016821F400410160A8
:1009D00000F088FA4D4A6168914201D84C4900E024
:1009E0004C49884201D2012070BD4B492368B0FBBD
:1009F000F1F15E6826F03F060E435E606368934245
:100A000006D94FF4967359434FF47A73B1FBF3F15F
:100A10002368491C1E6A26F03F063143196261684B
:100A2000914210D84900401EB0FBF1F2521CC2F3B3
:100A30000B02042A01D2042022E0B0FBF1F0401C9A
:100A4000C0F30B001CE0A268F2B301EBC10303EB9F
:100A50000116431EB3FBF6F35B1C43F480431B05F6
:100A600049D092B301EBC10202EB0111401EB0FB71
:100A7000F1F0401CC0F30B0040F4804040F4004013
:100A80002168CA694CF6FF739A431043C861D4E9E0
:100A9000071001432068026822F0C0021143016080
:100AA000D4E9030101432068826848F2FF339A4386
:100AB00011438160D4E9050108432168CA6822F026
:100AC000FF021043C86001E00EE016E020680168F4
:100AD00041F0010101602564202084F83D00256378
:100AE00084F83E50002070BD01EB4106431EB3FB6D
:100AF000F6F35B1CB3E70120C2E701EB4101401EA6
:100B0000B0FBF1F0401CC0F30B00B7E7A08601007A
:100B100080841E0000093D0040420F002DE9F84F7F
:100B20001F4690468A460446DDF82890FFF72CFFC2
:100B3000054694F83D0020287FD119230122404921
:100B40002046009500F090FE002876D194F83C00F5
:100B5000012872D0012084F83C0020680168C90790
:100B600003D1016841F0010101602068016821F4AE
:100B700000610160212084F83D00102084F83E00CF
:100B800000262664C4F824806785608D20852D4862
:100B9000E0622B464A465146204600F0EBFD90B9F4
:100BA000206841698069009036E02A46494620461F
:100BB00000F000FF50B1206C042804D120680168C7
:100BC00041F4007101600120BDE8F88F606A21687E
:100BD00000780861606A401C6062618D491E618511
:100BE000218D491E89B2218522685369DB435B0749
:100BF0000BD451B100781061606A401C6062608D56
:100C0000401E6085208D401E20852A46494620468C
:100C100000F0FEFD0028CED1208D0028C5D154F86B
:100C20003D0B016841F400710160202004F81E09A9
:100C3000E67766770020C7E7FFE70220C4E70000F9
:100C4000020010000000FFFF10B586B000210091E7
:100C500001910291039100680F4988421AD10F4C0B
:100C6000A06940F00800A061A069694600F0080092
:100C70000490C020009012200190032003900848A7
:100C8000FFF78CFDE06940F40010E061E06900F4DA
:100C90000010049006B010BD005400400010024047
:100CA000000C01400248816802781144816070475D
:100CB00010000020074810B5016841F010010160E4
:100CC000032000F067F80F2000F006F800F024F889
:100CD000002010BD0020024070B50D4D04464FF4B9
:100CE0007A712878B1FBF0F00A490968B1FBF0F09D
:100CF00000F05AFC48B9102C07D200222146501EA1
:100D000000F028F800206C6070BD012070BD00006C
:100D1000100000201C0000200C4808B5816941F03B
:100D200001018161816901F001010091C16941F016
:100D30008051C161C06900F0805000900448416852
:100D400021F0E06141F00071416008BD00100240F7
:100D500000000140F0B40E4B1B680C46C3F30223A5
:100D6000C3F10705042D00D90425191D072901D257
:100D7000002300E0DB1E012606FA05F1491E214092
:100D800099409E40761E16403143F0BC01F06AB98E
:100D90000CED00E0064900F0070208684FF6FF037B
:100DA000184040EA0220034A1043086070470000E0
:100DB0000CED00E00000FA052DE9F0470F460500B4
:100DC00061D0434E306800F00700B84209D2306865
:100DD00020F0070038433060306800F00700B84268
:100DE00051D128683B4C810712D5400703D5606874
:100DF00040F4E06060602878000703D5606840F444
:100E0000605060606068A96820F0F000084360608E
:100E10002878C00728D06868012810D021680228E7
:100E200010D0890700292EDA616821F003010143FF
:100E30006160FFF7A9FD804641F288390DE0216825
:100E40008903EFE78901EDE7FFF79EFDA0EB0801BD
:100E5000494502D90320BDE8F0876068696800F061
:100E60000C00B0EB810FEFD1306800F00700B84202
:100E70000BD9306820F0070038433060306800F04C
:100E80000700B84201D00120E5E72878400705D5E2
:100E90006068E96820F4E060084360602878000733
:100EA00006D56068296920F4605040EAC10060609E
:100EB00000F038F86168084AC1F30311515CC8407A
:100EC0000649086006480068FFF706FF0020C2E7F1
:100ED0000020024000100240522500081C000020A3
:100EE000140000200448054900684968044AC1F319
:100EF0000221515CC84070471C00002000100240D5
:100F0000622500080448054900684968044AC1F39D
:100F1000C221515CC84070471C00002000100240F4
:100F2000622500080E4A51680E4801F00C03042B9C
:100F300011D0082B0FD10C48C1F38343C903C05C07
:100F40000AD55168084AC1F34041921E515C054AD6
:100F50005043B0FBF1F0704704494843704700002C
:100F60000010024000127A004225000800093D00EE
:100F70002DE9F84F040070D02078C04DC00749D04B
:100F80006868C0F38100012807D06868C0F3810059
:100F9000022809D16868C00306D52868800339D5BE
:100FA00060680028E7D035E06068B0F5803F0BD07E
:100FB00010B1B0F5A02F11D0286820F4803028603F
:100FC000286820F4802002E0286840F480302860FF
:100FD000606890B1FFF7D8FC06460AE0286840F444
:100FE00080202860F0E700BFFFF7CEFC801B64285C
:100FF00073D828688003F7D50CE0FFF7C5FC0646D8
:1010000005E000BFFFF7C0FC801B6428F0D828680B
:101010008003F7D420789A4E80074FF001094FF0F3
:10102000000839D5686810F00C0F07D06868C0F365
:101030008100022809D16868C00306D428688007A7
:1010400014D52069012808D110E02069B0B1C6F894
:101050000090FFF799FC074605E00AE1FFF794FCD2
:10106000C01B0228C4D828688007F7D528686169A2
:1010700020F0F80040EAC10028600DE0C6F80080CA
:10108000FFF782FC074604E0FFF77EFCC01B022846
:1010900023D828688007F7D4207800072CD5794812
:1010A000A169D9B1C0F80090FFF76EFC074604E0D3
:1010B000FFF76AFCC01B02280FD8686A8007F7D5C3
:1010C00071484FF4FA510068B0FBF1F0009000BF96
:1010D0000098411E0091FAD20EE080E0C0F8008036
:1010E000FFF752FC074604E0FFF74EFCC01B022846
:1010F00075D8686A8007F7D42078400760D5E8691A
:101100000027C00008D4E86940F08050E861E86931
:10111000012700F0805000905C480168C90513D495
:101120000168834641F480710160FFF72DFC82461F
:1011300006E000BFFFF728FCA0EB0A0064284ED8A9
:10114000DBF80000C005F5D5E06801280AD008B139
:10115000052813D0286A20F001002862286A20F0B0
:10116000040002E0286A40F001002862E06841F2D1
:10117000883B98B1FFF708FC82460BE0286A40F0F4
:1011800004002862EEE700BFFFF7FEFBA0EB0A01B8
:1011900059455AD8286A8007F6D50CE0FFF7F4FBCA
:1011A000824605E0FFF7F0FBA0EB0A0159454CD859
:1011B000286A8007F6D41FB1E86920F08050E86102
:1011C000E06988B36968C1F38101022944D002282B
:1011D000C6F8608004D0FFF7D7FB044638E034E05F
:1011E000FFF7D2FB074604E0FFF7CEFBC01B022847
:1011F0002BD828688001F7D4206AB0F5803F05D14C
:101200006868A16820F4003008436860D4E90801E8
:101210000843696821F4741108436860C6F8609057
:10122000FFF7B2FB044606E025E000BFFFF7ACFB8A
:10123000001B022809D828688001F7D51BE000BFF1
:10124000FFF7A2FB001B022802D90320BDE8F88F9C
:1012500028688001F4D40EE00128F7D06868226A7B
:1012600000F48031914204D1616A00F47010884228
:1012700001D00120EAE70020E8E70000001002406A
:1012800000004242800442421C00002000700040E6
:1012900070B5040009D0606A002540B12561656120
:1012A000A56294F8510040B10CE0012070BD606867
:1012B000B0F5827FF4D0E561F2E784F85050204623
:1012C00000F040F8022084F851002068016821F005
:1012D00040010160A088218900F4827001F404417A
:1012E0000843A18901F400610843217C01F0020157
:1012F0000843217D01F001010843218B01F40071B5
:101300000843217F01F03801084394F8201001F0D0
:1013100080010843218D01F40051084321680860D1
:10132000A069042101EA1040216848602068C16971
:1013300021F40061C1616565012084F8510000203D
:1013400070BD000030B585B0002400940194029473
:10135000039400681549884225D11548C16941F4B4
:101360008041C161C16901F480410491816941F00A
:101370000801816180690F4D00F0080004904FF46E
:1013800020400090022001900320039069462846E7
:10139000FFF704FA4FF48040CDE90004694628467F
:1013A0000294FFF7FBF905B030BD000000380040A3
:1013B00000100240000C01402DE9FF4F81B01D4696
:1013C000934604464FF001090E9EFFF7DDFA0746EB
:1013D00094F851006168012806D0B1F5827F3CD1B4
:1013E000A168C9BB042838D10298002871D0BBF18C
:1013F000000FFBD0002DF9D094F8500001282CD01C
:101400004FF0010A84F850A094F85100042802D04B
:10141000052084F851004FF00008C4F85480C4F847
:1014200038B0E587A58702992163E586A586C4F8CB
:101430004080C4F8448020680168490603D40168EC
:1014400041F040010160E068B0F5006F606808D0CD
:10145000F0B3012D49D081E0FFE7022005B0BDE8DF
:10146000F08F08B1012D39D1206B21680088C86048
:10147000206B801C2063E08E401EE0862EE02068FA
:10148000816889070FD5E18E69B1B9F1010F0AD1E1
:10149000216B0988C160206B801C2063E08E401E98
:1014A000E0864FF0000920688168C9070CD0E18F01
:1014B00051B1C068A16B0880A06B801CA063E08F55
:1014C000401EE0874FF00109FFF75EFAC01B01E004
:1014D0000BE067E0B04201D3701C50D1E08E0028D1
:1014E000CDD1E08F0028CAD13EE0206B2168007882
:1014F0000873206B401C2063E08E401EE0862DE0C8
:101500002068816889070FD5E18E69B1B9F1010FB3
:101510000AD1216B09780173206B401C2063E08E97
:10152000401EE0864FF0000920688168C9070CD092
:10153000E18F51B1C068A16B0870A06B401CA06323
:10154000E08F401EE0874FF00109FFF71DFAC01B36
:10155000B04202D3701C01D011E086B1E08E0028A9
:10156000CED1E08F0028CBD13A463146204600F05C
:10157000EFFB50B12020606584F8508012E084F8C1
:1015800051A084F85080032068E7A06818B920684B
:10159000C1688068009084F851A084F85080606D24
:1015A0000028F1D0012059E710B5401EB0F1807F2E
:1015B00001D3012010BD4FF0E02460610F216017BE
:1015C00000F050FD0020A06107202061002010BD28
:1015D00070B5040004D094F84100002510B106E075
:1015E000012070BD84F84050204600F023F82420EC
:1015F00084F841002068C16821F40051C160204690
:1016000000F07CFC2068016921F4904101612068B0
:10161000416921F02A0141612068C16841F400510B
:10162000C1606564202084F8410084F8420065634D
:10163000002070BD30B585B0002400940194029460
:10164000039400681449884224D11448816941F404
:1016500080418161816901F480410491816941F097
:101660000401816180690E4D00F0040004904FF484
:1016700000700090022001900320039069462846E4
:10168000FFF78CF82815CDE9000469462846029436
:10169000FFF784F805B030BD00380140001002406B
:1016A000000801402DE9F843044690F841009846AF
:1016B00016460D46202802D00220BDE8F88385B1E9
:1016C0007EB100206064212084F84100FFF75CF9BE
:1016D000A6848146E684A0682027B0F5805F02D00A
:1016E00003E00120E9E7206910B12E4600250EE055
:1016F00000260CE08021204600F05CFCA8B9C6B1B1
:1017000016F8010B21684860E08C401EE084E08CF4
:101710004B464FF00002CDF800800028EAD14FF090
:101720004001204600F046FC40B184F8417003209F
:10173000C3E735F8020BC0F30800E3E784F8417013
:101740000020BAE7FEE701684A69D24352050FD488
:101750006FF480624A61002140F8301F20224273FA
:101760008173026942F00402026101730120704733
:1017700000207047F8B50446C06A1E460D4617465D
:10178000082807D0012805D010F5803F02D0206B33
:10179000122804D12068016841F480710160134669
:1017A00000224FF001112046009600F05DF840B194
:1017B00020680068C00502D54FF400702064032043
:1017C000F8BD2069B0F5804F0ED00620216800EAF0
:1017D000D51040F0F000086133463A460B492046E8
:1017E00000F08AF878B902E005F0FE0000E0E8B207
:1017F00021680861054933463A46891F204600F0B2
:101800007BF80028DCD00120F8BD000008000100B2
:1018100070B516460D4604461EE02046FFF793FFBE
:1018200008B1012070BD681C16D0FFF7ADF8801B11
:10183000A84200D885B920684069C04340070BD54D
:10184000002044F8300F20216173A073216941F01A
:10185000200121612073E4E720684069C04340070C
:10186000DBD4002070BD00002DE9F04798461746F4
:101870000D460446C1F30746DDF820902AE000BF7C
:10188000B8F1FF3F26D0FFF77FF8A0EB09014145F3
:1018900002D8B8F1000F1DD12068012E16D0806942
:1018A00025EA00000004000C12D00020B84211D13B
:1018B000002044F8300F20216173A073216941F0AA
:1018C0002001216120730120BDE8F0874069E7E72E
:1018D0000120EBE72068012E0AD0806925EA00008C
:1018E0000004000C06D00020B842C9D00020EBE76D
:1018F0004069F3E70120F7E72DE9F04798461646DF
:101900000D4604464FF000094FF0200AC1F3074787
:1019100023E020684069C043400515D42068016871
:1019200041F40071016021686FF480604861C4F87F
:10193000309084F83DA084F83E90216C41F0040181
:10194000216484F83C9021E0701C06D0FFF71CF85D
:10195000A0EB0800B04203D816B1012F1FD021E040
:101960002068012F15D0806925EA00000004000CD2
:1019700018D000BF44F8309F84F80DA084F80E9072
:10198000216941F02001216184F80C900120BDE81B
:10199000F087406925EA00000004000CEAD12068C5
:1019A000406901E02068806925EA00000004000C1D
:1019B000AFD1ECE770B516460D4604461EE0204652
:1019C000FFF7C1FE08B1012070BD681C16D0FEF7FC
:1019D000DBFF801BA84200D885B920684069C0435E
:1019E00000060BD5002044F8300F20216173A0734E
:1019F000216941F0200121612073E4E720684069FA
:101A0000C0430006DBD4002070BD7CB50446002531
:101A100029460D2000F008FB9320207020206070E4
:101A200001A823460090022219460C2000F06AF813
:101A3000010009D1225C401C5540C0B20428F9D3F2
:101A4000205CA84200D0022108467CBD0EB5502083
:101A50008DF8040000208DF805000DF1060202212A
:101A600001A8FEF74DFE02A801AB00900422194622
:101A70000C2000F047F80EBD10B5144C01221103E4
:101A80002046FEF77BFF0122D1022046FEF776FFBB
:101A900000F034F88D212A2000F0C6FA3E212B20D8
:101AA00000F0C2FA1E212D2000F0BEFA00212C20E9
:101AB00000F0BAFA4021152000F0B6FA3D211120BD
:101AC00000F0B2FABDE81040FEF715BE000C014070
:101AD0007CB50C46054607210D2000F0A5FA2570BF
:101AE00001A823460090012219460C2000F00AF8B4
:101AF00010B90199102900D002207CBD0F210120CE
:101B000000F092BA2DE9FF5F00270225DDF838A02A
:101B100016468B468146B8460C2805D0B9F10E0F03
:101B200005D11227102001E077273020804647F0AA
:101B30008001022000F078FA80210420FEF70FFED9
:101B400080210A2000F07BF90021012000F06CFACE
:101B5000002405E01BF80410092000F065FA641C5D
:101B6000B442F7D34946012000F05EFAB9F10C0FF8
:101B700003D180210D2000F062F94FF4FA660420B1
:101B800000F0C8F80446761E04D0E00702D114EA3B
:101B9000080FF4D080210D20FEF7E1FD36B10620BC
:101BA00000F0B8F810F01B0F04D0022504B028464E
:101BB000BDE8F09F00253C40E00700D00125B9F1C9
:101BC0000C0FF3D10A2000F0A5F804460C2000F019
:101BD000A1F810F007004FEAC40101D00839014410
:101BE000CAF8001024B1102C04D91024002603E0F8
:101BF0000124FBE7002605E0092000F08BF803999B
:101C00008855761CA642F7D3D0E700002DE9F043B3
:101C100085B00024214800940194029403948169C2
:101C200041F020018161816901F020010491816905
:101C300041F004018161816901F00401049181692D
:101C400041F0080181618069DFF8548000F00800EC
:101C50000490002218214046FEF790FEDFF84490E1
:101C60004FF4C057002239464846FEF787FE182039
:101C700001250226CDE90005CDE902466946404628
:101C8000FEF78CFD00970396CDE90154694648465E
:101C9000FEF784FD05B0BDE8F083000000100240AF
:101CA00000080140000C01400F4810B50D490160CB
:101CB0004FF48271416000218160C1604FF4007275
:101CC0000161C0E905121822C0E907214162816261
:101CD0000A21C162FFF7DCFA002801D072B6FEE7E4
:101CE00010BD00000038004074000020FEE7FEE751
:101CF0007047000001B582B064200090012301AA62
:101D000002A90348FFF758FB9DF804000EBD000030
:101D10007400002070B50D4E04464FF4805500222B
:101D200029463046FEF72AFE7E2000EA440040F0B5
:101D30008000FFF7DFFF0020FFF7DCFF04460122F1
:101D400029463046FEF71AFE204670BD000C0140C1
:101D5000F8B515460E460B460092044601220221B4
:101D600000F010F840B9334600228021204600954B
:101D700000F008F8002804D0606D40F02000606595
:101D80000320F8BD2DE9F8431E46914688460446D7
:101D9000089DFEF7F9FD401B351AFEF7F5FD0746D5
:101DA00025480068C0F3CB30684338E0701C37D05A
:101DB000FEF7EAFDC01BA84203D215B1009860B33C
:101DC0002CE02068416821F0E00141606068B0F5D6
:101DD000827F0BD1A068B0F5004F02D0B0F5806FC4
:101DE00004D12068016821F040010160A06AB0F5CB
:101DF000005F09D12068016821F40051016020686A
:101E0000016841F400510160012084F85100002074
:101E100084F850000320BDE8F8830025401E0090A0
:101E20002068816838EA010004D000214945BDD10D
:101E30000020F0E70121F9E71C000020704770B591
:101E40000C460546FFF766FF40EA04012846BDE858
:101E5000704000F0E9B8FEF725BF10B590B028211A
:101E60006846FEF758FB14210AA8FEF754FB02202F
:101E700000900120049010200024059007946846EB
:101E8000FFF776F808B172B6FEE70F20CDE90A0435
:101E90000C940D9400210AA80E94FEF78DFF0028E3
:101EA00001D072B6FEE710B010BD704701680C316A
:101EB00051E8002F22F4907241E80023002BF5D165
:101EC0000168143151E8002F22F0010241E800239B
:101ED000002BF5D1016B012909D101680C3151E8C2
:101EE000002F22F0100241E80023002BF5D1202121
:101EF00080F84210002101637047000070B504466D
:101F000000680169E26821F44051114301612169CF
:101F1000A0680843616908432168CA6841F20C63FC
:101F20009A430243CA6020684169A26921F4407162
:101F3000114341611E492068884202D1FEF7E2FF49
:101F400001E0FEF7CFFF00EBC00101EB001260687B
:101F500064218000B2FBF0F3B3FBF1F36FF01806DD
:101F60007343B2FBF0F5B2FBF0F605EB83053223C9
:101F700003EB0515B5FBF1F5B6FBF1F605F0F00541
:101F800005EB0615B2FBF0F6B2FBF0F0B0FBF1F09A
:101F90006FF01802504306EB800003EB0010B0FB1B
:101FA000F1F0216800F00F002844886070BD000047
:101FB000003801402DE9F843984617460D4604467F
:101FC000089E24E0701C22D0FEF7DEFCA0EB080087
:101FD000B0421AD8CEB12068C168490717D5802D04
:101FE00015D0402D13D00168C94309070FD40168EB
:101FF0000025406800902046FFF758FF08206064E5
:1020000084F840500120BDE8F8830320FBE72068F6
:10201000006835EA000004D00020B842D2D0002089
:10202000F1E70120F9E7FEE72DE9F0410C4E0F46FC
:1020300004464FF48055002229463046FEF79EFCA8
:102040007E2000EA4400FFF755FE3846FFF752FEB7
:1020500029463046BDE8F0410122FEF78FBC000062
:10206000000C01400907090E002804DB00F1E02004
:1020700080F80014704700F00F0000F1E02080F8B5
:10208000141D704730380A2801D201207047002003
:10209000704710B5012100F05DF8BDE81040022046
:1020A000FEF76ABB3AB1012A07D0022A09D0032AF7
:1020B00009D1D43102E0803100E0C031C9B200F072
:1020C00049B89431FAE7704710B504463220FEF75C
:1020D00053FB3021204600F03DF80520FEF74CFB75
:1020E0003021204600F036F80120FEF745FB302174
:1020F000204600F02FF80A20FEF73EFB2021204664
:1021000000F028F80A20FEF737FB2821204600F0CF
:1021100021F80821204600F01DF80121204600F09A
:1021200019F80220FEF728FB0621204600F012F8DD
:102130002046BDE810400C2100F00CB870B50C46EC
:10214000054603E02846641C00F021F821780029A8
:10215000F8D170BD1CB501F0F00242F00C038DF80F
:10216000043042F0080209018DF8052041F00C020C
:102170008DF8062041F008018DF8071064210091C8
:1021800081880068042301AAFEF7C8FC1CBD1CB5A9
:1021900001F0F00242F00D038DF8043042F0090224
:1021A00009018DF8052041F00D028DF8062041F05F
:1021B00009018DF8071064210091818800680423CB
:1021C00001AAFEF7ABFC1CBDFEF774FDFFF745FE50
:1021D000FFF71CFD8A4D8948002428608948C5E91D
:1021E00001044FF48040C5E903406C61AC61EC61CF
:1021F00028462C62FEF7CEFB08B172B6FEE7FFF769
:1022000053FD7F488049AC3001604FF41651C0E95E
:1022100001140C21C460C0E904418461C461FFF76A
:10222000D7F908B172B6FEE778484E210560818083
:10223000FFF74AFF7548FFF72CFF0022114673484D
:10224000FFF730FF72A17148FFF778FF01220021EC
:102250006E48FFF727FF72A16C48FFF76FFF40F24F
:10226000DC50FEF789FAFFF707FC3720FFF752FD35
:1022700010F0FF0229D0FF2A27D06DA17048FDF78A
:10228000ABFF6248FFF705FF002211465F48FFF7EA
:1022900009FF6B495D48FFF751FF5C48FFF7F9FE06
:1022A000002211465948FFF7FDFE66A15748FFF787
:1022B00045FF564D674E684F083D54492620C91FBB
:1022C000FFF706FC287068B163E05048FFF7E1FEB5
:1022D000002211464D48FFF7E5FE60A14B48FFF78D
:1022E0002DFFFEE74948C01FFFF78FFB287000282D
:1022F0004FD1002404EB041006EB400143480422B4
:10230000C01FFEF7BDF8002847D0641C042CF1DB89
:102310004B4857A13238FDF75FFF49483238FEF786
:10232000DBF8474982B232396423A1F14800FFF754
:10233000B9F93648FFF7ADFE002211463348FFF7E2
:10234000B1FE52A13148FFF7F9FE012208213846BB
:10235000FEF714FB4FF4FA60FEF70EFA002210218C
:102360003846FEF70BFB002208213846FEF706FB35
:10237000FFF76CFB3220FEF7FFF92448FFF789FED8
:10238000002211462148FFF78DFE2EA11F48FFF7BE
:10239000D5FE6420FEF7F0F98FE704EB041006EB9E
:1023A0004004274804F10E084346221D3CA1323860
:1023B000FDF712FF22483238FEF78EF8204982B22C
:1023C00032396423A1F14800FFF76CF90F48FFF799
:1023D00060FE002211460D48FFF764FE41460B489F
:1023E000FFF7ACFE012200210848FFF75BFE211D2C
:1023F0000648FFF7A3FE01221021A8E70054004081
:1024000020000020A08601000038014008000020C4
:1024100048452054484F4E4720524649440000004A
:102420004B484F4920444F4E472E2E2E00000000AF
:10243000307825303258202876322E30290000009E
:10244000460100204D4F49205155455420544845E0
:1024500021000000B8240008000C01404C4F492026
:102460004B4554204E4F4920524335323200000034
:102470004B484F4E4720434F2054524F4E47204425
:10248000414E4820534143480D0A0000544845201E
:102490004B484F4E4720484F50204C45000000000D
:1024A0004D53563A20257320202054454E20535634
:1024B0003A2025730D0A0000BD8C4521313132329E
:1024C0003232323100004E677579656E2054727574
:1024D0006E6720536F6E000000008804B63F3131F4
:1024E00032323231313600004E677579656E2048E0
:1024F000757520486F616E0000000000496A6CAB82
:1025000031313232323139340000446F2054726F2D
:102510006E67205068756F6E67000000000094EED3
:10252000AFB03030303030303336000042616E674B
:1025300020506861742053756F690000000000002E
:10254000010202030405060708090A0B0C0D0E0F11
:102550001010000000000000000001020304060744
:102560000809000000000102030430313233343521
:1025700036373839414243444546403058003031BF
:1025800032333435363738396162636465664030DA
:1025900078000400000800000000000000020001B4
:1025A00000001000C42500080000002020000000EA
:1025B00028010008E42500082000002098070000FA
:1025C00044010008000000000000000000000000BE
:1025D00000000000010000001000000000000000EA
:0425E00000127A006B
:04000005080000ED02
:00000001FF
